:020000040800F2
:1000000000800120A52D0008F92C0008FB2C000819
:10001000FD2C0008FF2C0008012D00080000000046
:10002000000000000000000000000000032D000898
:10003000052D000800000000072D0008092D00080C
:10004000F52D0008F52D0008F52D0008F52D000808
:10005000F52D0008F52D0008F52D0008F52D0008F8
:10006000F52D0008F52D0008F52D0008F52D0008E8
:10007000F52D0008F52D0008F52D0008F52D0008D8
:10008000F52D0008F52D0008F52D0008F52D0008C8
:10009000F52D0008F52D0008F52D0008112D00089C
:1000A000F52D0008F52D0008F52D0008F52D0008A8
:1000B000F52D0008F52D0008F52D0008F52D000898
:1000C000F52D0008F52D0008F52D0008F52D000888
:1000D000F52D0008F52D0008F52D0008F52D000878
:1000E0002F2D0008F52D0008F52D0008F52D00082E
:1000F000F52D0008F52D0008F52D0008F52D000858
:10010000F52D0008F52D0008F52D0008F52D000847
:10011000F52D0008F52D0008F52D0008F52D000837
:10012000F52D0008F52D0008F52D0008F52D000827
:10013000F52D0008F52D0008F52D0008F52D000817
:10014000F52D0008F52D0008F52D0008F52D000807
:10015000F52D0008F52D0008F52D0008F52D0008F7
:10016000F52D0008F52D0008F52D0008F52D0008E7
:10017000F52D0008F52D000800000000000000002B
:08018000F52D0008F52D000823
:1001880010B5054C237833B9044B13B10448AFF3C9
:1001980000800123237010BD08000020000000002B
:1001A800502E000808B5034B1BB103490348AFF3B1
:1001B800008008BD000000000C000020502E000840
:1001C80053B94AB9002908BF00281CBF4FF0FF31B6
:1001D8004FF0FF3000F072B9ADF1080C6DE904CEB4
:1001E80000F006F8DDF804E0DDE9022304B070470A
:1001F8002DE9F047089E04468846002B4BD18A42D9
:10020800154667D9B2FA82F24AB1C2F1200701FA5B
:1002180002F320FA07F7954047EA030894404FEAAB
:10022800154E230CB8FBFEF71FFA85FC0EFB17884A
:1002380043EA084307FB0CF1994209D9EB1807F187
:10024800FF3080F01B81994240F21881023F2B4415
:100258005B1AA4B2B3FBFEF00EFB103344EA03446E
:1002680000FB0CFCA44509D92C1900F1FF3380F0E0
:100278000781A44540F2048102382C4440EA074033
:10028800A4EB0C0400271EB1D4400023C6E90043A8
:100298003946BDE8F0878B4209D9002E00F0EB8083
:1002A8000027C6E9000138463946BDE8F087B3FAA9
:1002B80083F7002F47D18B4202D3824200F2FA80A3
:1002C800841A61EB030301209846002EE0D0C6E9AA
:1002D8000048DDE702B9FFDEB2FA82F2002A40F0F8
:1002E8008F80491B4FEA154E1FFA85F80127B1FB8D
:1002F800FEFC230C0EFB1C1143EA014308FB0CF126
:10030800994207D9EB180CF1FF3002D2994200F25A
:10031800CD808446591AA3B2B1FBFEF00EFB10142F
:1003280043EA044408FB00F8A04507D92C1900F15A
:10033800FF3302D2A04500F2B6801846A4EB0804A9
:1003480040EA0C409FE7C7F1200CBB4022FA0CFEA4
:100358004EEA030E01FA07F420FA0CF521FA0CF321
:100368004FEA1E482543B3FBF8F92C0C08FB193358
:100378001FFA8EFA44EA034309FB0AF49C4202FA84
:1003880007F200FA07F10BD91EEB030309F1FF305E
:1003980080F087809C4240F28480A9F1020973446E
:1003A8001B1BADB2B3FBF8F008FB103345EA03445E
:1003B80000FB0AFAA24508D91EEB040400F1FF333A
:1003C8006BD2A24569D90238744440EA0940A0FBBF
:1003D8000289A4EB0A044C45C2464B4654D351D07B
:1003E800002E69D0B1EB0A0564EB030404FA0CFC97
:1003F800FD40FC404CEA0505C6E90054002747E7E4
:10040800C2F1200320FA03F7954001FA02F021FA1D
:1004180003F34FEA154E3843010CB3FBFEF71FFAFE
:1004280085F80EFB173341EA034107FB08F38B42BB
:1004380004FA02F407D9691807F1FF3C2FD28B425E
:100448002DD9023F2944CB1A81B2B3FBFEF00EFB33
:10045800103341EA034100FB08F38B4207D96918BE
:1004680000F1FF3C17D28B4215D902382944C91A2A
:1004780040EA07473BE73746304609E70746E7E6DD
:100488001846FBE64145ABD2B8EB020A69EB0E020F
:1004980001381346A4E76046E9E7184695E767463A
:1004A800D1E781467CE702382C4447E7ACF1020CDF
:1004B8002B442FE7384608E73746E9E6704700BF80
:1004C80010B50446094B1868094BA3FB0030800996
:1004D80000F080F808B1012010BD002221464FF03D
:1004E800FF3000F037F80020F6E700BF04000020D6
:1004F800D34D621010B5032000F01AF80020FFF762
:10050800DFFF10B10124204610BD044602F066FB4F
:10051800F9E70000024A136801331360704700BF0F
:1005280024000020014B1868704700BF24000020F9
:10053800074AD36823F4E0631B041B0C000200F491
:10054800E060184340F0BF6040F40030D06070476E
:1005580000ED00E030B4174BDB68C3F30223C3F1AE
:100568000704042C28BF04241D1D062D18D9033B9D
:100578004FF0FF3505FA04F421EA0401994005FA21
:1005880003F322EA0303194300280BDB0901C9B26C
:1005980000F1604000F5614080F8001330BC7047FE
:1005A8000023E5E700F00F000901C9B2024B195416
:1005B800F4E700BF00ED00E014ED00E000F01F02DA
:1005C800400901239340024A42F82030704700BF97
:1005D80000E100E00138B0F1807F0AD2064B586094
:1005E800064AF02182F823100020986007221A603A
:1005F80070470120704700BF10E000E000ED00E008
:10060800F0B482B0002341E0D0F82CC02CEA040CEE
:10061800C6F3C0049C4044EA0C04C46286E0062485
:1006280000E00024B4403C430235664E46F82540BD
:10063800654C2568D44304EA05064F6817F4803FE3
:1006480001D042EA0506604D2E606D6804EA050691
:100658004F6817F4003F01D042EA05065A4D6E6014
:10066800AD6804EA05064F6817F4801F01D042EA16
:100678000506554DAE60ED682C404E6816F4001F17
:1006880001D042EA0504504AD46001330A6832FABC
:1006980003F400F0938001249C402240F5D04D687B
:1006A800022D01D0122D10D1DE08083650F826C0D0
:1006B80003F00705AF000F25BD402CEA050C0D69B6
:1006C800BD4045EA0C0540F8265006685F00032542
:1006D800BD40ED4305EA060C4E6806F00306BE4031
:1006E80046EA0C0606604E6806F1FF3CBCF1010FB5
:1006F80003D9112E01D0122E11D1866805EA060CF5
:10070800CE68BE4046EA0C068660466826EA040CB7
:100718004E68C6F300169E4046EA0C0646604E68D0
:1007280006F0030CBCF1030F3FF46EAFC46825401C
:100738008C68BC402C43C4604C6814F0805FA4D023
:10074800224C256E45F001052566246E04F001044F
:100758000194019C9D08AE1C1A4C54F8267003F0B5
:100768000304A6000F24B44027EA0407B0F1904F11
:100778003FF457AF164CA04216D004F58064A0424F
:1007880014D004F58064A04212D004F58064A0421D
:1007980010D004F58064A0420ED004F58064A04215
:1007A8003FF43DAF07243DE701243BE7022439E746
:1007B800032437E7042435E7052433E702B0F0BC07
:1007C800704700BF000001400004014000100240D3
:1007D800000400480AB98162704781617047704718
:1007E80008B5054B5B69034200D108BD024B58614F
:1007F800FFF7F5FFF9E700BF00040140024B186856
:1008080000F4C060704700BF00700040B0F5007F82
:100818000FD01F4B1B6803F4C063B3F5806F34D04F
:100828001B4A136823F4C06343F4806313600020F9
:100838007047174B1B6803F4C063B3F5007F22D0E1
:10084800134A136823F4C06343F400731360114B15
:100858001A68322303FB02F30F4AA2FB03239B0C03
:10086800013300E0013B0A4A526912F4806F01D05B
:10087800002BF7D1064B5B6913F4806F01D1002080
:10088800704703207047002070470020704700BF62
:10089800007000400400002083DE1B4330B583B0A5
:1008A8000546204B9B6D13F0805F0BD0FFF7A6FF2A
:1008B800B0F5007F17D0802D1FD82DD0702D2DD0EA
:1008C80000211BE0174CA36D43F08053A365A36D73
:1008D80003F080530193019BFFF790FFA36D23F072
:1008E8008053A365E4E7802D03D9A02D03D9022105
:1008F80004E0002102E0012100E003210A4A136814
:1009080023F007030B431360136803F007038B42BC
:1009180006D0012003B030BD0221EFE70121EDE749
:100928000020F7E70010024000200240314A936897
:10093800D26802F0030213F00C030AD00C2B06D085
:10094800042B1FD0082B20D00020014610E0012ADC
:10095800F6D1284A126812F0080F0CD1254AD2F8AD
:100968009420C2F30322244951F8221043B10020F5
:100978000C2B0DD070471F4A1268C2F30312F2E71E
:100988000846F5E71D480021F2E71D480021EFE77A
:10099800184BDA6802F00302DB68C3F30213013371
:1009A800022A0AD0032A1AD0B1FBF3F3114AD068FD
:1009B800C0F3062000FB03F008E01048B0FBF3F397
:1009C8000C4AD068C0F3062000FB03F0094BDB6833
:1009D800C3F3416301335B00B0FBF3F0CAE7084897
:1009E800B0FBF3F3034AD068C0F3062000FB03F022
:1009F800ECE700BF00100240682E00080024F40055
:100A080000127A00002800F09082F0B583B0044606
:100A1800AC4B9D6805F00C05DE6806F0030603681C
:100A280013F0100F5DD0E5B10C2D18D0A369002B81
:100A380000F0B780A34A136843F001031360FFF77F
:100A480071FD07469F4B1B6813F0020F40F096801C
:100A5800FFF768FDC01B0228F4D9032371E2012EB9
:100A6800E4D1984B1B6813F0020F03D0A369002B45
:100A780000F05E82206A934B1B6813F0080F5DD06C
:100A8800904B1B6803F0F00398425ED9FFF706FF0E
:100A9800002840F04F828B4B1A6842F008021A6017
:100AA8001A6822F0F002216A0A431A605A6822F48E
:100AB8007F42E16942EA01225A60FFF737FF814B22
:100AC8009B68C3F30313804AD35C03F01F03D84029
:100AD8007E4B18600020FFF7F3FC0346002840F027
:100AE8003082236813F0010F7AD0082D6FD00C2DB7
:100AF8006BD06368B3F5803F00F09180B3F5A02F09
:100B080000F093806F4B1A6822F480321A601A68DA
:100B180022F480221A606368002B00F09380FFF7AC
:100B280001FD0746674B1B6813F4003F58D1FFF7D8
:100B3800F9FCC01B6428F5D9032302E2614BD3F802
:100B480094301B0903F0F0039EE75E4B1A6842F0ED
:100B580008021A601A6822F0F002216A0A431A6031
:100B68005A6822F47F42E16942EA01225A60206A07
:100B7800FFF794FE0028A0D00123E2E1514B1A6848
:100B880042F008021A601A6822F0F002216A0A4349
:100B98001A605A6822F47F42E16942EA01225A60E7
:100BA8009FE7484A136823F001031360FFF7BAFC74
:100BB8000746444B1B6813F0020F92D0FFF7B2FCB4
:100BC800C01B0228F5D90323BBE1032E91D13D4B6D
:100BD8001B6813F4003F03D06368002B00F0AC815E
:100BE800236813F0020F4FD0042D3CD00C2D38D0C1
:100BF800E368002B75D0334A136843F4807313609D
:100C0800FFF790FC06462F4B1B6813F4806F5FD1EB
:100C1800FFF788FC801B0228F5D9032391E1294AB4
:100C2800136843F48033136075E703F18043A3F539
:100C38003C331A6842F480221A601A6842F48032FF
:100C48001A6068E7FFF76EFC07461E4B1B6813F433
:100C5800003FC5D0FFF766FCC01B6428F5D9032305
:100C68006FE1022EC4D1174B1B6813F4806F03D0B9
:100C7800E368002B00F06281124A536823F0F853AE
:100C8800216943EA01635360236813F0080F53D0C6
:100C98006369002B39D00B4AD2F8943043F0010332
:100CA800C2F89430FFF73EFC0646064BD3F8943062
:100CB80013F0020F40D1FFF735FC801B0228F4D94E
:100CC80003233EE100100240982E00080400002093
:100CD8009E4A536823F0F853216943EA016353603D
:100CE800D2E79A4A136823F480731360FFF71AFC5B
:100CF8000646964B1B6813F4806FC5D0FFF712FCAD
:100D0800801B0228F5D903231BE1904AD2F89430BE
:100D180023F00103C2F89430FFF704FC06468B4B1E
:100D2800D3F8943013F0020F06D0FFF7FBFB801BBB
:100D38000228F4D9032304E1236813F0040F7AD0BE
:100D4800824B9B6D13F0805F0BD1804B9A6D42F004
:100D580080529A659B6D03F080530193019B012695
:100D680000E000267A4B1B6813F4807F26D0A36826
:100D7800012B37D0052B3DD0744BD3F8902022F0AF
:100D88000102C3F89020D3F8902022F00402C3F89F
:100D98009020A368002B3BD0FFF7C4FB07466B4BA2
:100DA800D3F8903013F0020F44D1FFF7BBFBC01B00
:100DB80041F288339842F2D90323C2E0644A1368A7
:100DC80043F480731360FFF7ADFB0746604B1B6865
:100DD80013F4807FCBD1FFF7A5FBC01B0228F5D900
:100DE8000323AEE0594AD2F8903043F00103C2F829
:100DF8009030CEE7554BD3F8902042F00402C3F868
:100E08009020D3F8902042F00102C3F89020C0E768
:100E1800FFF788FB07464D4BD3F8903013F0020FCD
:100E280008D0FFF77FFBC01B41F288339842F2D904
:100E3800032386E066BBA36A002B00F081800C2D9B
:100E480000F08280022B29D0404B1A6822F0807271
:100E58001A601B6813F0205F04D13C4AD36823F062
:100E68000303D360394AD36823F0887323F48033AB
:100E7800D360FFF757FB0446344B1B6813F0007F21
:100E880051D0FFF74FFB001B0228F5D9032358E088
:100E98002E4A936D23F080539365CCE72B4A136851
:100EA80023F080731360FFF73DFB0546274B1B6853
:100EB80013F0007F06D0FFF735FB401B0228F5D959
:100EC80003233EE0236B5A1E636B1B0243EA0213A3
:100ED800A26B120943EA4243E26A1343E26B5208E7
:100EE800013A43EA4253226C5208013A43EA426308
:100EF800164AD360136843F080731360D36843F0D5
:100F08008073D360FFF70EFB0446104B1B6813F089
:100F1800007F06D1FFF706FB001B0228F5D9032343
:100F28000FE000230DE000230BE001231846704773
:100F3800012306E0012304E0012302E0012300E08D
:100F48000023184603B0F0BD0123FAE70010024061
:100F580000700040002800F09A8070B504464E4B9F
:100F68001B6803F007038B420CD24B4A136823F02B
:100F780007030B431360136803F007038B4201D088
:100F8800012070BD0D46236813F0010F39D0636846
:100F9800032B09D0022B26D063BB404A126812F0FB
:100FA800020F06D10120ECE73C4A126812F0007FDC
:100FB8006FD03A498A6822F0030213438B60FFF727
:100FC800B1FA0646354B9B6803F00C036268B3EB35
:100FD800820F16D0FFF7A6FA801B41F28833984299
:100FE800F0D90320CDE72D4A126812F4003FE0D172
:100FF8000120C6E7294A126812F4806FD9D101206E
:10100800BFE7236813F0020F06D0244A936823F041
:10101800F003A1680B4393601F4B1B6803F00703A1
:10102800AB420CD91C4A136823F007032B43136007
:10103800136803F00703AB4201D00120A1E723683E
:1010480013F0040F06D0154A936823F4E063E168AF
:101058000B439360236813F0080F07D00F4A936877
:1010680023F46053216943EAC1039360FFF75EFCF0
:101078000A4B9B68C3F30313094AD35C03F01F03AD
:10108800D840084B18600020FFF71AFA79E70120CA
:101098007047012075E700BF0020024000100240A1
:1010A800982E000804000020014B1868704700BF04
:1010B8000400002008B5FFF7F7FF054B9B68C3F352
:1010C8000223044AD35C03F01F03D84008BD00BFC5
:1010D80000100240A82E000808B5FFF7E5FF054BF1
:1010E8009B68C3F3C223044AD35C03F01F03D840B0
:1010F80008BD00BF00100240A82E0008F8B55A4BE2
:10110800DB6813F0030F18D0574BDB6803F00303B9
:101118000268934202D001252846F8BD002A00F053
:10112800A080514BDB68C3F302130133426893423A
:1011380001D00125F0E700251AE00368022B59D0F9
:10114800032B5ED0012B01D001250FE0464A12681F
:1011580012F0020F61D0444DEA6822F0730244682D
:10116800013C43EA04131343EB600025002DD3D15F
:101178000F4604463C4A136823F080631360FFF768
:10118800D1F90646384B1B6813F0006F05D0FFF7FE
:10119800C9F9801B0228F5D90325002DBCD1002FE1
:1011A8003DD131490B6923F41F3323F44073A06800
:1011B800E2681209520442EA002213430B612A4AE8
:1011C800136843F080631360FFF7ACF90646264BBB
:1011D8001B6813F0006F05D1FFF7A4F9801B0228E4
:1011E800F5D90325002D97D11F4A1369A1690B432F
:1011F800136191E71C4A126812F4806FABD1012584
:10120800B4E7194A126812F4003FA4D1164A1268CA
:1012180012F4802F9FD10125A8E70125A6E7012F09
:101228000FD01148026922F0C06222F4FE42A16880
:1012380063695B08013B5B0643EA012313430361CF
:10124800BDE70948026922F4C00222F4FE42A168FF
:1012580023695B08013B5B0543EA012313430361F0
:10126800ADE7012558E700BF00100240F8B5514B23
:10127800DB6813F0030F18D04E4BDB6803F0030351
:101288000268934202D001252846F8BD002A00F0E2
:101298008E80484BDB68C3F30213013342689342E4
:1012A80001D00125F0E700251AE00368022B59D088
:1012B800032B5ED0012B01D001250FE03D4A1268B7
:1012C80012F0020F61D03B4DEA6822F073024468C5
:1012D800013C43EA04131343EB600025002DD3D1EE
:1012E8000F460446334A136823F080531360FFF710
:1012F80019F906462F4B1B6813F0005F05D0FFF75E
:1013080011F9801B0228F5D90325002DBCD1002F27
:101318003DD128494B6923F41F3323F44073A06857
:10132800E2681209520442EA002213434B61214A3F
:10133800136843F080531360FFF7F4F806461D4B1B
:101348001B6813F0005F05D1FFF7ECF8801B02283B
:10135800F5D90325002D97D1164A536961690B43C6
:10136800536191E7134A126812F4806FABD10125DB
:10137800B4E7104A126812F4003FA4D10D4A12686B
:1013880012F4802F9FD10125A8E70125A6E7094877
:10139800426922F0C06222F4FE42A16823695B0818
:1013A800013B5B0643EA012313434361BFE7012581
:1013B8006AE700BF001002402DE9F04182B0044600
:1013C800036813F4006F2FD0436EB3F5800F25D058
:1013D80008D9B3F5000F10D0B3F5400F40F099804D
:1013E800002610E0002B40F0948000210430FFF725
:1013F80085FE06463EB1374618E05E4AD36843F498
:101408008033D36000265B4AD2F8883023F4400347
:10141800616E0B43C2F88830002707E000212030B6
:10142800FFF724FF0646E5E700273E46236813F446
:10143800805F15D0A36EB3F1807F7AD06CD9B3F1F9
:10144800007F70D0B3F1407F7AD1002E7BD1494A1A
:10145800D2F8883023F04073A16E0B43C2F888306D
:10146800236813F4003F00F08E80424B9B6D13F00D
:10147800805F6AD13F4B9A6D42F080529A659B6DAE
:1014880003F080530193019B4FF001083A4A136817
:1014980043F480731360FFF745F80546364B1B6825
:1014A80013F4807F05D1FFF73DF8401B0228F5D9DA
:1014B8000326002E62D12F4BD3F8903013F44073DB
:1014C80016D0D4F884209A4212D02A4AD2F8903002
:1014D80023F44073D2F8901041F48031C2F8901090
:1014E800D2F8901021F48031C2F89010C2F89030F0
:1014F80013F0010F2CD1002E40F043811D4AD2F881
:10150800903023F44073D4F884100B43C2F8903021
:1015180035E001273E4689E793B90021201DFFF7F2
:10152800EDFD064691E7134AD36843F48033D36050
:101538008BE7002104F12000FFF798FE064684E7B8
:1015480001273E468CE737468AE74FF000089DE7BB
:10155800FEF7E8FF0546074BD3F8903013F0020F6B
:10156800C9D1FEF7DFFF401B41F288339842F2D918
:101578000326C0E700100240007000403746B8F16B
:10158800000F40F00081236813F0010F08D09D4A36
:10159800D2F8883023F00303A16B0B43C2F88830DC
:1015A800236813F0020F08D0964AD2F8883023F047
:1015B8000C03E16B0B43C2F88830236813F0040F67
:1015C80008D0904AD2F8883023F03003216C0B43BE
:1015D800C2F88830236813F0080F08D0894AD2F877
:1015E800883023F0C003616C0B43C2F8883023684D
:1015F80013F0100F08D0834AD2F8883023F44073D0
:10160800A16C0B43C2F88830236813F0200F08D070
:101618007C4AD2F8883023F44063E16C0B43C2F86B
:101628008830236813F4007F08D0764AD2F88830CF
:1016380023F44023E16D0B43C2F88830236813F488
:10164800806F08D06F4AD2F8883023F44013216E97
:101658000B43C2F88830236813F0400F08D0694A5A
:10166800D2F8883023F44053216D0B43C2F88830F8
:10167800236813F0800F08D0624AD2F8883023F428
:101688004043616D0B43C2F88830236813F4807FB0
:1016980008D05C4AD2F8883023F44033A16D0B435C
:1016A800C2F88830236813F4005F0FD0554AD2F887
:1016B800883023F04063E16E0B43C2F88830E36E54
:1016C800B3F1006F65D0B3F1806F67D0236813F46E
:1016D800002F0FD04B4AD2F8883023F04063216F97
:1016E8000B43C2F88830236FB3F1006F5ED0B3F1BB
:1016F800806F60D0236813F4802F0FD0414AD2F84E
:10170800883023F04063616F0B43C2F88830636F01
:10171800B3F1006F57D0B3F1806F59D0236813F439
:10172800804F0FD0374AD2F8883023F04053A16F4A
:101738000B43C2F88830A36FB3F1805F50D0B3F188
:10174800005F55D0236813F4004F08D02D4AD2F813
:10175800883023F08043E16F0B43C2F88830236858
:1017680013F4803F09D0274AD2F8883023F0004389
:10177800D4F880100B43C2F88830384602B0BDE870
:10178800F0813746FBE61F4A936D23F0805393653B
:10179800F9E6D36843F48013D36097E70121201D4D
:1017A800FFF7ACFC002891D007468FE7D36843F4D5
:1017B8008013D3609EE70121201DFFF79FFC0028BE
:1017C80098D0074696E7D36843F48013D360A5E71B
:1017D8000121201DFFF792FC00289FD007469DE7B6
:1017E8000221201DFFF78AFC0028ABD00746A9E795
:1017F800022104F12000FFF739FD0028A2D0074696
:10180800A0E700BF0010024030B4036A23F00103D0
:101818000362036A4468826922F4803222F0730208
:101828000D682A4323F002038D682B431C4DA84200
:101838000FD005F50065A8420BD005F54065A84214
:1018480007D005F58065A84203D005F58065A84254
:1018580005D123F00803CD682B4323F00403104D72
:10186800A8420FD005F50065A8420BD005F54065E4
:10187800A84207D005F58065A84203D005F5806524
:10188800A84205D124F440754C692C438D692C433A
:10189800446082614A684263036230BC704700BF9B
:1018A800002C014030B4036A23F480730362036A96
:1018B8004468C26922F4803222F073020D682A4318
:1018C80023F400738D6843EA0523184DA84203D01A
:1018D80005F50065A84206D123F40063CD6843EA04
:1018E800052323F48063114DA8420FD005F5006548
:1018F800A8420BD005F54065A84207D005F58065DC
:10190800A84203D005F58065A84207D124F44054C5
:101918004D6944EA05148D6944EA05144460C261BE
:101928004A68C263036230BC704700BF002C0140A4
:1019380030B4036A23F480530362036A4468C269BB
:1019480022F0807222F4E6420D6842EA052223F46E
:1019580000538D6843EA05330F4DA8420FD005F5B3
:101968000065A8420BD005F54065A84207D005F5EB
:101978008065A84203D005F58065A84204D124F407
:1019880080444D6944EA85144460C2614A6802642F
:10199800036230BC704700BF002C014030B4036ABA
:1019A80023F480330362036A4468426D22F4803270
:1019B80022F070020D682A4323F400338D6843EA4D
:1019C80005430F4DA8420FD005F50065A8420BD07E
:1019D80005F54065A84207D005F58065A84203D003
:1019E80005F58065A84204D124F480344D6944EAA1
:1019F8000524446042654A688265036230BC7047CA
:101A0800002C014030B4036A23F480130362036A94
:101A18004468426D22F0807222F4E0420D6842EA86
:101A2800052223F400138D6843EA05530F4DA8429D
:101A38000FD005F50065A8420BD005F54065A84212
:101A480007D005F58065A84203D005F58065A84252
:101A580004D124F480244D6944EA85244460426515
:101A68004A68C265036230BC704700BF002C014061
:101A78000368304A904212D0B0F1804F0FD0A2F5DF
:101A8800943290420BD002F58062904207D002F562
:101A98008062904203D002F59432904203D123F041
:101AA80070034A681343234A90421ED0B0F1804F16
:101AB8001BD0A2F59432904217D002F58062904272
:101AC80013D002F5806290420FD002F59432904212
:101AD8000BD002F54062904207D002F58062904236
:101AE80003D002F58062904203D123F44073CA68A0
:101AF800134323F080034A69134303608B68C3626E
:101B08000B6883620B4B98420FD003F50063984231
:101B18000BD003F54063984207D003F580639842E1
:101B280003D003F58063984201D10B690363012355
:101B380043617047002C0140A8B110B5044690F8E5
:101B48003D305BB1022384F83D30211D2068FFF74A
:101B58008FFF012384F83D30002010BD80F83C3011
:101B680001F054F8EEE701207047000030B4036A32
:101B780023F010030362036A4468826922F08072CA
:101B880022F4E6420D6842EA052223F020038D681C
:101B980043EA0513174DA84203D005F50065A8428E
:101BA80006D123F08003CD6843EA051323F04003F0
:101BB800104DA8420FD005F50065A8420BD005F5D9
:101BC8004065A84207D005F58065A84203D005F511
:101BD8008065A84207D124F440644D6944EA85042D
:101BE8008D6944EA8504446082614A6882630362BD
:101BF80030BC7047002C014038B590F83C30012BC0
:101C080000F092800D460446012380F83C30022300
:101C180080F83D30142A1ED8DFE802F00B1D1D1D88
:101C2800241D1D1D381D1D1D4B1D1D1D5F1D1D1D4A
:101C380072000068FFF7E8FD2268936943F0080323
:101C480093612268936923F004039361226893697E
:101C580029690B439361012384F83D30002084F8FF
:101C68003C0038BD0068FFF781FF2268936943F4A0
:101C7800006393612268936923F480639361226807
:101C88009369296943EA01239361E4E70068FFF750
:101C980009FE2268D36943F00803D3612268D36937
:101CA80023F00403D3612268D36929690B43D36104
:101CB800D1E70068FFF73CFE2268D36943F400636C
:101CC800D3612268D36923F48063D3612268D3691E
:101CD800296943EA0123D361BDE70068FFF75EFE87
:101CE8002268536D43F0080353652268536D23F04F
:101CF800040353652268536D29690B435365AAE7AA
:101D08000068FFF77FFE2268536D43F40063536554
:101D18002268536D23F4806353652268536D2969E3
:101D280043EA0123536596E702209AE710B401F0CD
:101D38001F01012303FA01F4036A23EA040303627F
:101D4800036A8A40134303625DF8044B704700003E
:101D580010B5044601220068FFF7E8FF2368144A1B
:101D680093420FD002F5006293420BD002F5406215
:101D7800934207D002F58062934203D002F5806255
:101D8800934203D15A6C42F400425A642268916823
:101D9800084B0B40062B09D09168064B0B40B3F556
:101DA800803F03D0136843F001031360002010BD87
:101DB800002C01400700010090F83C30012B28D08E
:101DC80030B4012380F83C30022380F83D300268AB
:101DD80053689568104CA24203D004F50064A242EF
:101DE80003D123F470034C68234323F070030C6879
:101DF800234325F080048968214353600368996070
:101E0800012380F83D30002380F83C30184630BC70
:101E180070470220704700BF002C01402DE9F048B0
:101E28000446016883680269134342691343C2691F
:101E380013430868A24A024013430B6022685368A0
:101E480023F44053E1680B435360A16922689D4B1A
:101E58009A4201D0236A1943936823F430630B43F1
:101E680093602368984A934227D0984A934238D07F
:101E7800974A93424ED0974A934261D0964A9342EA
:101E880074D0904A934200F08A8010258D4A93427C
:101E980000F0AA80E369B3F5004F00F03581082D02
:101EA80000F2BF81DFE815F07F0195019F01BD01B8
:101EB800AA01BD01BD01BD01B40102F55842D2F825
:101EC800882002F00302032A09D8DFE802F002049E
:101ED80081060125DAE70425D8E70825D6E7102585
:101EE800D4E702F5E632D2F8882002F00C020C2A78
:101EF8000ED8DFE802F0070D0D0D090D0D0D6F0D61
:101F08000D0D0B000025C1E70425BFE70825BDE737
:101F18001025BBE702F5E432D2F8882002F030023F
:101F2800102A09D005D9202A56D0302A06D10825EA
:101F3800ACE71AB90025A9E70425A7E71025A5E706
:101F480002F5E232D2F8882002F0C002402A09D015
:101F580005D9802A42D0C02A06D1082596E71AB9A1
:101F6800002593E7042591E710258FE702F5E03275
:101F7800D2F8882002F44072B2F5807F0BD007D9DE
:101F8800B2F5007F2CD0B2F5407F06D108257DE759
:101F98001AB900257AE7042578E7102576E702F5CF
:101FA800C832D2F8882002F44062B2F5806F0BD0B4
:101FB80007D9B2F5006F15D0B2F5406F06D10825E4
:101FC80064E71AB9002561E704255FE710255DE796
:101FD80002255BE7022559E7022557E7022555E761
:101FE800022553E7022551E7082D00F21D81DFE89D
:101FF80015F00C001B0114001B0111001B011B0133
:102008001B0109004FF4004008E0FFF753F828B916
:102018000020D9E0FEF78AFCF9E73048626802EB55
:102028004203834200F20281B0EB023F00F20081DA
:10203800082D66D8DFE805F005652065306565651B
:102048005800FFF737F80025070E060262685008A7
:102058002B4616EB000B47F1000C58466146FEF77D
:10206800AFF803462846A3F540711D4A914200F295
:10207800E1802268D360A7E0560800252B46DFF8E8
:1020880064B04FF0000C1BEB06004CF10001FEF7AA
:1020980097F803462846E6E7FEF748FC0025070EB2
:1020A8000602626850082B4616EB000B47F1000C3D
:1020B80058466146FEF784F803462846D3E700BF32
:1020C800F369FFEF00800040003801400044004001
:1020D80000480040004C0040005000400024F4003C
:1020E800FFFC0F00000024F45008002700252B46B1
:1020F80010F5000047F10001FEF762F80346284694
:10210800B1E701200023AEE7082D49D8DFE805F044
:10211800051E2948344848483F00FEF7CBFF62684F
:10212800530803EB4003B3FBF2F39BB20020A3F187
:1021380010014FF6EF7291427ED89AB222F00F0248
:10214800C3F3420313432268D3603DE0FEF7C4FFA4
:102158006268530803EB4003B3FBF2F39BB2002021
:10216800E5E76268530803F1F47303F59043B3FBA2
:10217800F2F39BB20020DAE7FEF7D8FB6268530857
:1021880003EB4003B3FBF2F39BB20020CFE7626896
:10219800530803F58033B3FBF2F39BB20020C6E784
:1021A80001200023C3E7FEF785FF636800EB5302B5
:1021B800B2FBF3F292B20020A2F110014FF6EF73D6
:1021C80099423BD82368DA60002222666266BDE83D
:1021D800F088FEF781FF636800EB5302B2FBF3F26D
:1021E80092B20020E8E763685A0802F5740202F523
:1021F8001052B2FBF3F292B20020DDE7FEF796FB35
:10220800636800EB5302B2FBF3F292B20020D3E70B
:1022180063685A0802F50042B2FBF3F292B200205A
:10222800CAE701200022C7E70120CDE70120CBE75C
:102238000120C9E70120C7E70120C5E70120C3E75E
:10224800436A13F0010F06D00268536823F4003381
:10225800816A0B435360436A13F0020F06D0026889
:10226800536823F48033C16A0B435360436A13F005
:10227800040F06D00268536823F48023016B0B43D4
:102288005360436A13F0080F06D00268536823F4BA
:102298000043416B0B435360436A13F0100F06D0A1
:1022A8000268936823F48053816B0B439360436AFD
:1022B80013F0200F06D00268936823F40053C16B13
:1022C8000B439360436A13F0400F0AD002685368C7
:1022D80023F48013016C0B435360036CB3F5801F28
:1022E8000BD0436A13F0800F06D00268536823F4BA
:1022F8000023816C0B43536070470268536823F4D2
:10230800C003416C0B435360EBE72DE9F0410546F0
:102318000F4616469846069C2B68DB6937EA030386
:102328000CBF01230023B3421DD1B4F1FF3FF3D00A
:102338002CB1FEF7F7F8A0EB0800A042ECD92A6808
:10234800136823F4D07313602A68936823F0010399
:102358009360202385F8713085F87230002385F862
:102368007030032000E00020BDE8F0812DE9F04145
:1023780082B01E4690F87130DBB2202B4ED1044655
:102388000D46904600294ED0002A4ED090F8703065
:10239800012B4CD0012380F87030002343672123A0
:1023A80080F87130FEF7BEF80746A4F85080A4F80C
:1023B800528009E023682A781A850135B4F852302A
:1023C800013B9BB2A4F85230B4F852309BB2ABB187
:1023D80000963B46002280212046FFF796FF40BB2F
:1023E800A368B3F5805FE5D12369002BE2D12268A9
:1023F80035F8023BC3F308031385DFE700963B4635
:10240800002240212046FFF780FF034698B920228A
:1024180084F87120002284F8702000E00223184616
:1024280002B0BDE8F0810123F9E70123F7E70223B1
:10243800F5E70323F3E70323F1E72DE9F04182B041
:102448001E4690F87230DBB2202B71D104460D463F
:102458009046002970D0002A70D090F87030012B77
:102468006ED0012380F8703000234367222380F860
:102478007230FEF757F80746A4F85880A4F85A8037
:10248800A368B3F5805F06D0A3B9236973B9FF23A6
:10249800A4F85C3011E0236923B940F2FF13A4F8D3
:1024A8005C300AE0FF23A4F85C3006E07F23A4F840
:1024B8005C3002E0B3F1805F02D0B4F85C8016E0D3
:1024C80023691BB97F23A4F85C30F6E73F23A4F8FF
:1024D8005C30F2E723689A8C5FFA88F313402B701C
:1024E8000135B4F85A30013B9BB2A4F85A30B4F81D
:1024F8005A309BB2ABB100963B46002220212046C1
:10250800FFF703FFF0B9A368B3F5805FE2D1236951
:10251800002BDFD123689B8C08EA030325F8023BD4
:10252800DFE7202384F87230002084F8700000E090
:10253800022002B0BDE8F0810120FAE70120F8E7A7
:102548000220F6E70320F4E730B583B00446002301
:102558004367FDF7E7FF054623681B6813F0080F7C
:102568000ED123681B6813F0040F17D1202384F8B9
:10257800713084F87230002084F8700003B030BDE8
:102588006FF07E430093034600224FF4001120466B
:10259800FFF7BBFE0028E4D00320EFE76FF07E438F
:1025A80000932B4600224FF480012046FFF7ADFE32
:1025B8000028DBD00320E1E778B310B5044690F893
:1025C80071300BB3242384F871302268136823F028
:1025D800010313602046FFF721FC012813D0636A2A
:1025E800BBB92268536823F4904353602268936808
:1025F80023F02A0393602268136843F001031360F1
:102608002046FFF7A1FF10BD80F8703000F03CFBBA
:10261800D8E72046FFF714FEE3E7012070470000E3
:102628002DE9F04F8BB00024059406940794089484
:102638000994B34BDA6C42F01002DA64DA6C02F0F7
:1026480010020092009ADA6C42F00402DA64DA6C42
:1026580002F004020192019ADA6C42F00102DA6493
:10266800DA6C02F001020292029ADA6C42F002027B
:10267800DA64DA6C02F002020392039ADA6C42F02E
:102688000802DA64DB6C03F008030493049BDFF8A8
:10269800848222464FF48A714046FEF79BF8224610
:1026A80048F204114FF09040FEF794F822464FF29A
:1026B80004019448FEF78EF8224641F281019248BF
:1026C800FEF788F801224FF400518F48FEF782F890
:1026D80022464FF410718D48FEF77CF80122202124
:1026E8008848FEF777F8012211464046FEF772F84F
:1026F80040F215130593012706970794089405A936
:102708004046FDF77DFF6A230593DFF80C92CDF86C
:102718001890079405A94046FDF772FF4FF400533F
:1027280005937B4B0693079405A97848FDF768FF46
:102738003F2305934FF00B0ACDF818A0079405A97D
:102748007248FDF75DFF0325059502260696079456
:1027580008954FF0080BCDF824B005A94FF090402C
:10276800FDF74EFF48F20413059306970794089463
:1027780005A94FF09040FDF743FFCDF814B0069639
:1027880007940894099705A94FF09040FDF738FF82
:1027980010230593CDF818A0079405A94FF0904091
:1027A800FDF72EFFE0230593069607940895052369
:1027B800099305A94FF09040FDF722FF0597CDF842
:1027C8001890079405A94F48FDF71AFF4FF2240304
:1027D800059306970794089405A94A48FDF710FF42
:1027E8004FF42073059306960794089406230993DB
:1027F80005A94046FDF704FF4FF47C430593069670
:10280800079408954FF00A0ACDF824A005A9404678
:10281800FDF7F6FE4FF440630593122306930797DE
:1028280008950423099305A93648FDF7E9FE4FF4F6
:10283800407BCDF814B00696079408954FF007082A
:10284800CDF8248005A93048FDF7DAFE4CF604439C
:102858000593CDF81890079405A92B48FDF7D0FEED
:1028680043F28103059306970794089405A926481F
:10287800FDF7C6FE4FF41073059306970794089466
:1028880005A92248FDF7BCFE4FF4C0730593CDF8A7
:102898001890079405A91D48FDF7B2FE4FF4007380
:1028A80005930694079405A94FF09040FDF7A8FEFC
:1028B8004FF4E059CDF81490069607940895CDF892
:1028C80024A005A94FF09040FDF79AFECDF814908A
:1028D8000696079408950623099305A90B48FDF762
:1028E8008FFE05960696079408950523099305A972
:1028F8000548FDF785FE78230593069607940DE0B5
:102908000010024000040048000C0048000800487D
:102918000000211000100048000011100895CDF8A3
:10292800248005A91048FDF76BFECDF814B01223DA
:102938000693079708950423099305A90B48FDF703
:102948005FFE224621461720FDF704FE1720FDF7FB
:1029580035FE224621462820FDF7FCFD2820FDF7FC
:102968002DFE0BB0BDE8F08F000C004800040048B5
:1029780030B58BB00024079408940994009401940E
:1029880002940394049405940694144D144B2B60FC
:1029980040F237436B60AC6040F2CF73EB602C6160
:1029A800AC612846FFF7C8F80794099407A9284698
:1029B800FFF702FA602300930194029404942246DC
:1029C80069462846FFF718F90C2269462846FFF79A
:1029D80013F9284600F030F90BB030BD280000206C
:1029E8000004004008B50948094B03604FF4E1337F
:1029F800436000238360C36003610C2242618361EA
:102A0800C36103624362FFF7D7FD08BD6800002079
:102A18000038014030B589B060230193029000244A
:102A280003940594054D224601A92846FFF7E4F8CA
:102A380021462846FFF78CF909B030BD2800002050
:102A480030B5B9B02422002128A800F0F5F90024F7
:102A58002294239424942594269488222146684617
:102A680000F0EAF91023279301252D9560232F9371
:102A780002233193329533952822349207223592D6
:102A88003693379327A8FDF7BDFF0F23229303231F
:102A98002393249425942694042122A8FEF75AFA15
:102AA80000950E946846FEF787FC4FF40070FDF71A
:102AB800ADFE39B030BD000010B582B0FDF71AFD8B
:102AC800FFF7BEFFFFF7ACFDFFF752FFFFF78AFFE6
:102AD8001AE0404A13881E339BB21380B3F53E7F39
:102AE80003D913464FF43E721A803A4C22880A23BF
:102AF80002F0040221463848FFF738FC2088FFF727
:102B080089FF6088FFF786FF4FF0FF3301220DF140
:102B180007013148FFF791FC9DF80730613B162B00
:102B2800E3D801A252F823F0A92B0008F32A0008E1
:102B3800F32A0008C52B0008F32A0008F32A000826
:102B4800F32A0008F32A0008F32A0008F32A0008E9
:102B5800F32A0008F32A0008F32A0008F32A0008D9
:102B6800F32A0008F32A0008F32A0008F32A0008C9
:102B78008D2B0008F32A0008F32A0008F32A00081E
:102B8800DB2A0008134A13881E3B9BB2138040F2CD
:102B980025229342A9D80F4B40F226221A80A4E797
:102BA8000C4A53880A3B9BB2538040F22522934239
:102BB8009BD8084B40F226225A8096E7054A53884C
:102BC8000A339BB2538040F2C62293428DD9014BFF
:102BD8005A808AE7000000206800002082B00A4B73
:102BE8001A6E42F001021A661A6E02F00102009291
:102BF800009A9A6D42F080529A659B6D03F080535B
:102C08000193019B02B07047001002400268094B13
:102C18009A4200D0704782B003F503339A6D42F0B0
:102C280002029A659B6D03F002030193019B02B0B7
:102C3800704700BF0004004000B587B0002301932F
:102C4800029303930493059302680D4B9A4202D0B2
:102C580007B05DF804FB03F50333DA6C42F00202B7
:102C6800DA64DB6C03F002030093009B12230193E8
:102C780002230293059301A90248FDF7C1FCE7E787
:102C8800000400400004004800B589B00023039305
:102C980004930593069307930268134B9A4202D054
:102CA80009B05DF804FB03F558431A6E42F48042FC
:102CB8001A661A6E02F480420192019ADA6C42F0A6
:102CC8000202DA64DB6C03F002030293029BC02366
:102CD800039302230493032306930723079303A96B
:102CE8000248FDF78DFCDBE700380140000400488E
:102CF8007047FEE7FEE7FEE7FEE77047704770475C
:102D080008B5FDF707FC08BD08B52020FDF768FDEC
:102D18004020FDF765FD8020FDF762FD4FF48070CF
:102D2800FDF75EFD08BD08B54FF48060FDF758FD5E
:102D38004FF40060FDF754FD4FF40050FDF750FDCF
:102D48004FF48040FDF74CFD4FF40040FDF748FD7F
:102D580008BD00000F49D1F8883043F47003C1F86A
:102D680088300D4B1A6842F001021A600020986002
:102D78001A6822F0A85222F410221A604FF48052E6
:102D8800DA601A6822F480221A6098614FF00063B2
:102D98008B60704700ED00E000100240DFF834D08F
:102DA800002103E00C4B5B58435004310B480C4B9B
:102DB80042189A42F6D30B4A02E0002342F8043B39
:102DC800094B9A42F9D3FFF7C5FF00F011F8FFF756
:102DD80073FEFEE700800120C82E000800000020D6
:102DE8000800002008000020E0000020FEE70000A6
:102DF80070B50D4E0D4CA41BA4100025A54209D199
:102E08000B4E0C4C00F020F8A41BA4100025A54282
:102E180005D170BD56F8253098470135EEE756F8CC
:102E2800253098470135F2E7B82E0008B82E00087B
:102E3800B82E0008BC2E000802440346934200D175
:102E4800704703F8011BF9E7F8B500BFF8BC08BCE8
:102E58009E467047F8B500BFF8BC08BC9E46704750
:102E6800A0860100400D0300801A060000350C0002
:102E780040420F0080841E0000093D0000127A00C5
:102E88000024F40000366E010048E801006CDC0202
:102E98000000000000000000010203040607080902
:082EA800000000000102030418
:082EB00048D3FF7F0100000080
:082EB800AD010008000000005C
:082EC000890100080000000078
:082EC8009402990200093D008B
:0400000508002DA51D
:00000001FF
